{
  "contractName": "Attendance",
  "abi": [
    {
      "inputs": [],
      "stateMutability": "nonpayable",
      "type": "constructor"
    },
    {
      "anonymous": false,
      "inputs": [
        {
          "indexed": false,
          "internalType": "string",
          "name": "studentId",
          "type": "string"
        },
        {
          "indexed": false,
          "internalType": "string",
          "name": "date",
          "type": "string"
        },
        {
          "indexed": false,
          "internalType": "bool",
          "name": "isPresent",
          "type": "bool"
        },
        {
          "indexed": false,
          "internalType": "string",
          "name": "Subject",
          "type": "string"
        }
      ],
      "name": "AttendanceMarked",
      "type": "event"
    },
    {
      "inputs": [],
      "name": "admin",
      "outputs": [
        {
          "internalType": "address",
          "name": "",
          "type": "address"
        }
      ],
      "stateMutability": "view",
      "type": "function",
      "constant": true
    },
    {
      "inputs": [
        {
          "internalType": "uint256",
          "name": "",
          "type": "uint256"
        }
      ],
      "name": "records",
      "outputs": [
        {
          "internalType": "string",
          "name": "studentId",
          "type": "string"
        },
        {
          "internalType": "string",
          "name": "date",
          "type": "string"
        },
        {
          "internalType": "bool",
          "name": "isPresent",
          "type": "bool"
        },
        {
          "internalType": "string",
          "name": "Subject",
          "type": "string"
        }
      ],
      "stateMutability": "view",
      "type": "function",
      "constant": true
    },
    {
      "inputs": [
        {
          "internalType": "string",
          "name": "_studentId",
          "type": "string"
        },
        {
          "internalType": "string",
          "name": "_date",
          "type": "string"
        },
        {
          "internalType": "bool",
          "name": "_isPresent",
          "type": "bool"
        },
        {
          "internalType": "string",
          "name": "Subject",
          "type": "string"
        }
      ],
      "name": "markAttendance",
      "outputs": [],
      "stateMutability": "nonpayable",
      "type": "function"
    },
    {
      "inputs": [
        {
          "internalType": "uint256",
          "name": "index",
          "type": "uint256"
        }
      ],
      "name": "getAttendance",
      "outputs": [
        {
          "internalType": "string",
          "name": "",
          "type": "string"
        },
        {
          "internalType": "string",
          "name": "",
          "type": "string"
        },
        {
          "internalType": "bool",
          "name": "",
          "type": "bool"
        },
        {
          "internalType": "string",
          "name": "Subject",
          "type": "string"
        }
      ],
      "stateMutability": "view",
      "type": "function",
      "constant": true
    },
    {
      "inputs": [],
      "name": "getRecordCount",
      "outputs": [
        {
          "internalType": "uint256",
          "name": "",
          "type": "uint256"
        }
      ],
      "stateMutability": "view",
      "type": "function",
      "constant": true
    }
  ],
  "bytecode": "0x608060405234801561001057600080fd5b50600180546001600160a01b031916331790556109bf806100326000396000f3fe608060405234801561001057600080fd5b50600436106100575760003560e01c8063344610671461005c578063b4307e3f14610088578063ca267f281461009b578063efe88cb8146100b0578063f851a440146100c5575b600080fd5b61006f61006a36600461080e565b6100da565b60405161007f9493929190610885565b60405180910390f35b61006f61009636600461080e565b6102bb565b6100a3610517565b60405161007f919061092f565b6100c36100be366004610771565b61051d565b005b6100cd610648565b60405161007f9190610871565b600081815481106100ea57600080fd5b906000526020600020906004020160009150905080600001805461010d90610938565b80601f016020809104026020016040519081016040528092919081815260200182805461013990610938565b80156101865780601f1061015b57610100808354040283529160200191610186565b820191906000526020600020905b81548152906001019060200180831161016957829003601f168201915b50505050509080600101805461019b90610938565b80601f01602080910402602001604051908101604052809291908181526020018280546101c790610938565b80156102145780601f106101e957610100808354040283529160200191610214565b820191906000526020600020905b8154815290600101906020018083116101f757829003601f168201915b5050506002840154600385018054949560ff90921694919350915061023890610938565b80601f016020809104026020016040519081016040528092919081815260200182805461026490610938565b80156102b15780601f10610286576101008083540402835291602001916102b1565b820191906000526020600020905b81548152906001019060200180831161029457829003601f168201915b5050505050905084565b6060806000606060008054905085106102ef5760405162461bcd60e51b81526004016102e6906108d1565b60405180910390fd5b600080868154811061031157634e487b7160e01b600052603260045260246000fd5b906000526020600020906004020160405180608001604052908160008201805461033a90610938565b80601f016020809104026020016040519081016040528092919081815260200182805461036690610938565b80156103b35780601f10610388576101008083540402835291602001916103b3565b820191906000526020600020905b81548152906001019060200180831161039657829003601f168201915b505050505081526020016001820180546103cc90610938565b80601f01602080910402602001604051908101604052809291908181526020018280546103f890610938565b80156104455780601f1061041a57610100808354040283529160200191610445565b820191906000526020600020905b81548152906001019060200180831161042857829003601f168201915b5050509183525050600282015460ff161515602082015260038201805460409092019161047190610938565b80601f016020809104026020016040519081016040528092919081815260200182805461049d90610938565b80156104ea5780601f106104bf576101008083540402835291602001916104ea565b820191906000526020600020905b8154815290600101906020018083116104cd57829003601f168201915b505050919092525050815160208301516040840151606090940151919a9099509297509550909350505050565b60005490565b6001546001600160a01b031633146105475760405162461bcd60e51b81526004016102e6906108f8565b60408051608081018252858152602080820186905284151592820192909252606081018390526000805460018101825590805281518051929360049092027f290decd9548b62a8d60345a988386fc84ba6bc95484008f6362f93160ef3e56301926105b59284920190610657565b5060208281015180516105ce9260018501920190610657565b50604082015160028201805460ff191691151591909117905560608201518051610602916003840191602090910190610657565b5050507fb0b338fc749b7cdead701ff577fdca47a28642c9ce27e3388a570912e1e906fe8484848460405161063a9493929190610885565b60405180910390a150505050565b6001546001600160a01b031681565b82805461066390610938565b90600052602060002090601f01602090048101928261068557600085556106cb565b82601f1061069e57805160ff19168380011785556106cb565b828001600101855582156106cb579182015b828111156106cb5782518255916020019190600101906106b0565b506106d79291506106db565b5090565b5b808211156106d757600081556001016106dc565b600082601f830112610700578081fd5b813567ffffffffffffffff8082111561071b5761071b610973565b604051601f8301601f19168101602001828111828210171561073f5761073f610973565b604052828152848301602001861015610756578384fd5b82602086016020830137918201602001929092529392505050565b60008060008060808587031215610786578384fd5b843567ffffffffffffffff8082111561079d578586fd5b6107a9888389016106f0565b955060208701359150808211156107be578485fd5b6107ca888389016106f0565b94506040870135915081151582146107e0578384fd5b909250606086013590808211156107f5578283fd5b50610802878288016106f0565b91505092959194509250565b60006020828403121561081f578081fd5b5035919050565b60008151808452815b8181101561084b5760208185018101518683018201520161082f565b8181111561085c5782602083870101525b50601f01601f19169290920160200192915050565b6001600160a01b0391909116815260200190565b6000608082526108986080830187610826565b82810360208401526108aa8187610826565b9050841515604084015282810360608401526108c68185610826565b979650505050505050565b6020808252600d908201526c092dcecc2d8d2c840d2dcc8caf609b1b604082015260600190565b6020808252601e908201527f4f6e6c792061646d696e2063616e206d61726b20617474656e64616e63650000604082015260600190565b90815260200190565b60028104600182168061094c57607f821691505b6020821081141561096d57634e487b7160e01b600052602260045260246000fd5b50919050565b634e487b7160e01b600052604160045260246000fdfea26469706673582212200ef2b99aa22292467f78893855eaaf698c5cb87c52cf3981437fc9f4ef2a393264736f6c63430008000033",
  "immutableReferences": {},
  "source": "// SPDX-License-Identifier: MIT\r\npragma solidity ^0.8.0;\r\n\r\ncontract Attendance {\r\n    // Struct to store attendance records\r\n    struct Record {\r\n        string studentId; // Unique ID of the student\r\n        string date;      // Date of attendance\r\n        bool isPresent;   // Attendance status (true = present, false = absent)\r\n        string Subject;\r\n    }\r\n\r\n    // Array to store all attendance records\r\n    Record[] public records;\r\n\r\n    // Address of the admin \r\n    address public admin;\r\n\r\n    // Event to log attendance marking\r\n    event AttendanceMarked(string studentId, string date, bool isPresent, string Subject);\r\n\r\n    // Constructor to set the admin as the contract deployer\r\n    constructor() {\r\n        admin = msg.sender;\r\n    }\r\n\r\n    // Function to mark attendance (only callable by admin)\r\n    function markAttendance(string memory _studentId, string memory _date, bool _isPresent , string memory Subject) public {\r\n        require(msg.sender == admin, \"Only admin can mark attendance\");\r\n        records.push(Record(_studentId, _date, _isPresent, Subject));\r\n        emit AttendanceMarked(_studentId, _date, _isPresent, Subject);\r\n    }\r\n\r\n    // Function to get attendance record by index\r\n    function getAttendance(uint index) public view returns (string memory, string memory, bool, string memory Subject) {\r\n        require(index < records.length, \"Invalid index\");\r\n        Record memory record = records[index];\r\n        return (record.studentId, record.date, record.isPresent, record.Subject);\r\n    }\r\n\r\n    // Function to get total number of attendance records\r\n    function getRecordCount() public view returns (uint) {\r\n        return records.length;\r\n    }\r\n}",
  "sourcePath": "C:\\Users\\anike\\Desktop\\Major project\\Major2\\contracts\\Attendance.sol",
  "compiler": {
    "name": "solc",
    "version": "0.8.0+commit.c7dfd78e.Emscripten.clang"
  },
  "schemaVersion": "3.4.16",
  "updatedAt": "2025-07-30T15:25:01.035Z",
  "networkType": "ethereum",
  "devdoc": {
    "kind": "dev",
    "methods": {},
    "version": 1
  },
  "userdoc": {
    "kind": "user",
    "methods": {},
    "version": 1
  }
}